S010000064696F207461736B2E7372656305
S11300000C942A000C943C000C943C000C943C008E
S11300100C943C000C943C000C943C000C943C006C
S11300200C943C000C943C000C943C000C943C005C
S11300300C943C000C943C000C943C000C943C004C
S11300400C943C000C943C000C943C000C943C003C
S11300500C943C0011241FBECFE5D8E0DEBFCDBF19
S113006020E0A0E6B0E001C01D92A036B207E1F79F
S11300700E941F010C9469040C94000064E081E464
S11300800E94120165E081E40E94120166E081E4AD
S11300900E94120161E084E40E9451000E94550014
S11300A0089540E00E94320108950E9422020895BA
S11300B04F925F926F927F928F929F92AF92BF9274
S11300C0FF920F931F93CF93DF93EC018436910536
S11300D070F0C83E83E0D80780F0C03187E2D807CB
S11300E098F46894FF24F2F860E071E013C0689417
S11300F0FF24F1F868E070E00DC00F2EF3E0FF2E4E
S1130100F02D60E470E006C00F2EF5E0FF2EF02D18
S113011060E074E080E090E00E94450320E034E277
S113012044E759E40E949D024B015C01BE0180E05A
S113013090E00E94450320E030E04AE754E40E9446
S11301409D022B013C0120E030E040E853E4C5016E
S1130150B4010E94D8039B01AC01C301B2010E9407
S11301609D020E940F03EB0121968E01A5019401CB
S1130170C301B2010E949D024B015C01BE0180E0FB
S113018090E00E9445039B01AC01C501B4010E94AB
S11301909D029B01AC0160E070E080E893E40E9462
S11301A030024B015C010E941603C62F70E080E010
S11301B090E00E9447039B01AC01C501B4010E9479
S11301C0300220E030E048EC52E40E94D80320E002
S11301D030E048E452E40E94D30388230CF0CF5F5C
S11301E08C2F0E942A028F2D0E942402C0E0D0E0AE
S11301F006C008B600FEFDCF0E942C022196C0174F
S1130200D107B8F30E942802DF91CF911F910F917B
S1130210FF90BF90AF909F908F907F906F905F9072
S11302204F90089541E0682F0E943201089541E003
S11302300E94AA01089540E00E94AA0108950E9424
S11302403E0064E081E40E94170184EF91E00E9483
S1130250580064E081E40E941B018CE291E00E945A
S11302605800EFCF823429F118F4813439F008951D
S11302708334D1F1843409F452C00895413059F4DF
S11302802AB381E090E002C0880F991F6A95E2F7D3
S1130290822B8ABB089541115CC02AB381E090E0AF
S11302A002C0880F991F6A95E2F7809582238ABB62
S11302B00895413059F427B381E090E002C0880FDB
S11302C0991F6A95E2F7822B87BB0895411141C0BB
S11302D027B381E090E002C0880F991F6A95E2F786
S11302E08095822387BB0895413059F424B381E07B
S11302F090E002C0880F991F6A95E2F7822B84BBB5
S11303000895411126C024B381E090E002C0880F13
S1130310991F6A95E2F78095822384BB0895413042
S113032059F421B381E090E002C0880F991F6A95C7
S1130330E2F7822B81BB089541110BC021B381E008
S113034090E002C0880F991F6A95E2F78095822396
S113035081BB0895823429F118F4813439F0089569
S11303608334D1F1843409F452C00895413059F4EE
S11303702BB381E090E002C0880F991F6A95E2F7E1
S1130380822B8BBB089541115CC02BB381E090E0BC
S113039002C0880F991F6A95E2F7809582238BBB70
S11303A00895413059F428B381E090E002C0880FE9
S11303B0991F6A95E2F7822B88BB0895411141C0C9
S11303C028B381E090E002C0880F991F6A95E2F794
S11303D08095822388BB0895413059F425B381E088
S11303E090E002C0880F991F6A95E2F7822B85BBC3
S11303F00895411126C025B381E090E002C0880F22
S1130400991F6A95E2F78095822385BB0895413050
S113041059F422B381E090E002C0880F991F6A95D5
S1130420E2F7822B82BB089541110BC022B381E015
S113043090E002C0880F991F6A95E2F780958223A5
S113044082BB089513BE089593B7892B83BF089583
S113045013BE089582BF089588B7816088BF089548
S11304605058BB27AA270E9448020C9499030E9463
S11304708B0338F00E94920320F039F49F3F19F463
S113048026F40C9488030EF4E095E7FB0C948203A5
S1130490E92F0E94AA0358F3BA1762077307840767
S11304A0950720F079F4A6F50C94CC030EF4E095AE
S11304B00B2EBA2FA02D0B01B90190010C01CA011A
S11304C0A0011124FF27591B99F0593F50F4503EC5
S11304D068F11A16F040A22F232F342F4427585FB7
S11304E0F3CF469537952795A795F0405395C9F7CF
S11304F07EF41F16BA0B620B730B840BBAF0915087
S1130500A1F0FF0FBB1F661F771F881FC2F70EC025
S1130510BA0F621F731F841F48F4879577956795F8
S1130520B795F7959E3F08F0B0CF9395880F08F0E4
S11305309927EE0F9795879508950E94B1020C9420
S113054099030E94920358F00E948B0340F029F40F
S11305505F3F29F00C94820351110C94CD030C9449
S113056088030E94AA0368F39923B1F3552391F3F6
S1130570951B550BBB27AA2762177307840738F00E
S11305809F5F5F4F220F331F441FAA1FA9F335D06B
S11305900E2E3AF0E0E832D091505040E695001C1F
S11305A0CAF72BD0FE2F29D0660F771F881FBB1FD9
S11305B0261737074807AB07B0E809F0BB0B802DB7
S11305C0BF01FF2793585F4F3AF09E3F510578F0E3
S11305D00C9482030C94CD035F3FE4F3983ED4F370
S11305E0869577956795B795F7959F5FC9F7880FB7
S11305F0911D9695879597F90895E1E0660F771F09
S1130600881FBB1F621773078407BA0720F0621B99
S1130610730B840BBA0BEE1F88F7E09508950E94C4
S113062016036894B1110C94CD0308950E94B2038B
S113063088F09F5798F0B92F9927B751B0F0E1F09F
S1130640660F771F881F991F1AF0BA95C9F714C04F
S1130650B13091F00E94CC03B1E008950C94CC0326
S1130660672F782F8827B85F39F0B93FCCF3869588
S113067077956795B395D9F73EF4909580957095E5
S113068061957F4F8F4F9F4F0895E89409C097FB62
S11306903EF490958095709561957F4F8F4F9F4F55
S11306A09923A9F0F92F96E9BB279395F695879599
S11306B077956795B795F111F8CFFAF4BB0F11F45C
S11306C060FF1BC06F5F7F4F8F4F9F4F16C0882303
S11306D011F096E911C0772321F09EE8872F762F39
S11306E005C0662371F096E8862F70E060E02AF07A
S11306F09A95660F771F881FDAF7880F9695879566
S113070097F9089597F99F6780E870E060E008958D
S11307109FEF80EC089500240A9416161706180615
S11307200906089500240A941216130614060506F1
S11307300895092E0394000C11F4882352F0BB0F82
S113074040F4BF2B11F460FF04C06F5F7F4F8F4FE5
S11307509F4F089557FD9058440F551F59F05F3F20
S113076071F04795880F97FB991F61F09F3F79F0CF
S113077087950895121613061406551FF2CF469551
S1130780F1DF08C0161617061806991FF1CF8695D3
S11307907105610508940895E894BB2766277727B7
S11307A0CB0197F908950E94450408F48FEF08954A
S11307B00E94EB030C9499030E948B0338F00E946F
S11307C0920320F0952311F00C9482030C94880377
S11307D011240C94CD030E94AA0370F3959FC1F3D6
S11307E0950F50E0551F629FF001729FBB27F00DDB
S11307F0B11D639FAA27F00DB11DAA1F649F662730
S1130800B00DA11D661F829F2227B00DA11D621F7E
S1130810739FB00DA11D621F839FA00D611D221F38
S1130820749F3327A00D611D231F849F600D211D1C
S1130830822F762F6A2F11249F5750409AF0F1F09F
S113084088234AF0EE0FFF1FBB1F661F771F881F08
S113085091505040A9F79E3F510580F00C948203BB
S11308600C94CD035F3FE4F3983ED4F386957795DB
S11308706795B795F795E7959F5FC1F7FE2B880FAE
S1130880911D9695879597F90895990F0008550F2E
S1130890AA0BE0E8FEEF16161706E807F907C0F002
S11308A012161306E407F50798F0621B730B840B0A
S11308B0950B39F40A2661F0232B242B252B21F4E4
S11308C008950A2609F4A140A6958FEF811D811D84
S10908D00895F894FFCF27
S9030000FC
